:04000000F4EFA5F084
:1000080000C016F001C015F0F2A212D0000E0101D6
:10001800241902E1000E23190BE1A00E0901146F47
:10002800860E156FF292010E0101236F000E246FE8
:10003800F2A210D00101000E241902E1010E2319C9
:1000480009E1010E0901146F000E156FF29201010A
:10005800236B246B9EAA10D0848EA4EC48F0005029
:10006800010A04E165ECA5F000C023F9010E0901BD
:100078001D6F000E1E6F9E9A16C000F015C001F08D
:02008800110065
:0A008A00000000000000000012005A
:100094008080120E006E000E016E830E0024E16E4D
:1000A4000F0E0120E26EFF0EE66E8092030E8314A3
:0E00B400016E0150030A01E0F9D780821200AC
:1000C200E8DF120E006E000E016E830E0024E16E58
:1000D2000F0E0120E26EE66A82C983FF8094D4DFAC
:0800E200D3DFD2DF808412009D
:1000EA008090120E006E000E016E830E0024E16EE7
:1000FA000F0E0120E26EE66A82C983FF8094C0DF98
:08010A00BFDFBEDF808412009C
:100112007FC900F0016A00C081F97EC982F9E4DF7B
:0E01220081C982F9E1DF80C982F9CADF1200CB
:100130000B6A0A6A096A00500402F4CF09F0F3CF8F
:1001400008F001500502F4CF0BF0F3CF0AF0005095
:100150000502F3500926F4500A22E86A0B220150E6
:100160000402F3500926F4500A22E86A0B2208C060
:1001700000F009C001F00AC002F00BC003F0120049
:10018000086A096A100E0C6E0134083609360450EC
:10019000085E0550D8A0053C095ED8B007D00450D1
:1001A00008260550D8B0053C0926D89000360136FF
:0601B0000C2EEAD712003C
:0A01B6000D0E0D6E0D2EFED7120087
:1001C0001D0E0C6E910E0D6E0D2EFED70C2EFCD753
:0201D00012001B
:0C01D200420E0D6E0D2EFED70000120034
:1001DE0071C925F972C926F9000E0901276F286F1A
:0601EE00010E246F120057
:0A01F400E0DF8E88DEDF8E98120037
:1001FE00090171BF02D0849C01D0848C71BD02D0E4
:10020E00849A01D0848A71BB02D0829A01D0828AEC
:10021E0071B902D0829801D0828822B102D0828434
:10022E0001D0829482862ADF829671B702D0849C96
:10023E0001D0848C71B502D0849A01D0848A71B3B6
:10024E0002D0829A01D0828A71B102D0829801D0F6
:10025E00828822B102D0828401D0829482860EDFFF
:0E026E00829622A102D0A5DF01D0ACDF1200E3
:10027C00220E0C6E086A096A0A6A0B6A0C06D8B45C
:10028C001FD0D8900B320A320932083203320232B4
:10029C0001320032D8A0F2D70C06D8B409D00450E1
:1002AC0008260550092206500A2207500B22EAD7CD
:1002BC00045008260550092206500A2207500B222A
:0202CC0012001E
:1002CE0009017A6B7B6B03C904F004C905F071C98F
:1002DE0000F0000E016E4DDF00C07CF901C07DF90B
:1002EE0072C900F0000E016E2EC104F02FC105F090
:1002FE0018DF7C5100247A6F7D5101207B6F010144
:10030E002C5109017A2701012D5109017B23070E7A
:10031E007615016E015000080DE27633769F763326
:10032E00769F7633769F762B7637769176377691E3
:10033E007637769177C900F0770700524DE0A3DE4D
:10034E007AC97EF97BC97FF9240E0901806FDADE46
:10035E00B00E0901826FAEDE8090120E006E000E9E
:10036E00016E830E0024E16E0F0E0120E26EE66A2E
:10037E000901786B796B03C904F004C905F076C9DD
:10038E0000F0000E016EF5DE0150795D02E10050C5
:10039E00785D16E273C9F6FF74C9F7FF75C9F8FFE9
:1003AE000900F5CF83FF010E7327000E742375230A
:1003BE00809464DE63DE62DE8084784B792BDBD73B
:1003CE00B20E826F77DE01012E5109017A270101EB
:0A03DE002F5109017B23AED7120056
:1003E80055DEC50E0901826F68DE120E006E000E22
:1003F800016E830E0024E16E0F0E0120E26EFF0EE7
:10040800E66E3FDE8090809280843BDE3ADE39DE05
:0C04180083CF71F93BDE71C900F01200C7
:100424000134083609360450085E0550D8A0053C4E
:10043400095E003601360F0E0C6E0134083609369B
:10044400045000A006D0085E0550D8A0053C095E03
:1004540005D008260550D8B0053C092600360136DB
:100464000C2EEBD700B006D0045008260550D8B0A7
:08047400053C092600001200FE
:10047C007F0E09016715006E00C067F98E948E9689
:10048C00BF0E001600C067F9008C00C067F900C0F1
:06049C0087FFAADE12003A
:1004A20009012C51685D02E12B51675D01E39ED089
:1004B2002A516A5D02E12951695D01E397D0800EFC
:1004C2006819006E800E005C02E1000E675D01E2B9
:1004D2008DD0800E6A19006E800E005C02E1000E63
:1004E200695D01E283D003C904F004C905F067C95C
:1004F20000F068C901F043DE00C06FF901C070F975
:1005020069C900F06AC901F02EC104F02FC105F0DB
:100512000EDE6F510026000E012201012C51002433
:10052200036E2D510120046E04C000F0016A00C068
:100532006CF903C082F9D8DD6CC982F9D5DD240ECD
:100542000901826FBDDD09016B51020A37E1A1DDAC
:100552004ADF00C06FF96FC96DF903C904F004C91D
:1005620005F067C900F068C901F009DE08C000F0B3
:1005720009C001F000500901035D006E000600C0D1
:1005820001F0010E006E015004E000360090FF0FF2
:10059200FBD700C06EF96F51001607E06E1D006EAA
:1005A20000C06EF900506D1702D06E516D136DC907
:1005B20082F99ADDC40E826F83DD18D0F00E090134
:1005C2006B11826F03C904F004C905F067C900F01A
:1005D20068C901F0D4DD08C000F009C001F0005084
:0E05E200035D006E0006005082136ADD1200F9
:1005F00027C171F928C172F9EA0E0901736FBE0EA5
:10060000746F010E756F32C176F901C977F95FDE3B
:020610001200D6
:1006120009016A6B6B6B3DDD2CC17EF92DC17FF93F
:10062200240E0901806F74DDB00E0901826F48DD6E
:100632008090120E006E000E016E830E0024E16E99
:100642000F0E0120E26EE66A0101375109016B5D6E
:1006520004E10101365109016A5D16E267C9F6FF3C
:1006620068C9F7FF69C9F8FF0900F5CF83FF010EDA
:100672006727000E68236923809406DD05DD04DD0B
:1006820080846A4B6B2BE0D7B20E826F19DD1200A9
:0E0692000901229167C971F9B1DD22811200C0
:1006A000030E0B6E080E0C6E770E0D6E0D2EFED720
:0A06B0000C2EFCD70B2EFAD7120017
:1006BA000450000A08E10550000A05E1FF0E006E29
:1006CA007F0E016E57D00D6A096A086A0150001040
:1006DA00D8B4000C015005180A6E0ABE0D1E0B6A2A
:1006EA0005AE05D0041E051E042AD8B4052A01AE9B
:1006FA0005D0001E011E002AD8B4012A0150051097
:10070A000A6E0ABE10D089DE0BB020D00DAE000CE6
:10071A00001E011E002AD8B4012A081E091E082A32
:10072A00D8B4092A000C05AE0DD001BE07D001507D
:10073A00096E0050086E016A006AE8D7016A006A09
:10074A00002A000C011E001E0B2ADDD7082AD8B485
:10075A00092A0450085CD8A4D9D70550095CD8A442
:10076A00D5D7096A086A002AD8B4012A01AECED7B9
:06077A000000FF0C12005C
:1007800009016C6B6D6B86DC0901685101012C2538
:1007900009017E6F695101012D2109017F6F240E2E
:1007A000806FB7DCB00E0901826F8BDC8090120E77
:1007B000006E000E016E830E0024E16E0F0E01200C
:1007C000E26EE66A09016B516D5D02E16A516C5D92
:1007D0000BE267C983FF809458DC57DC56DC55DC9C
:1007E00080846C4B6D2BEED7B20E826F6ADC1200E8
:1007F00043D127C171F928C172F9300E0901736F15
:10080000CF0E746F010E756F300E766F200E776FFE
:100810005EDD7BD1090127C171F928C172F9700E23
:10082000736FD40E746F010E756F400E766F100EDD
:10083000776F4DDD6AD1090127C171F928C172F9BD
:10084000B00E736FD00E746F010E756F300E766F31
:10085000200E776F3CDD59D1090127C171F928C1FC
:1008600072F9700E736FD10E746F010E756F300ECA
:10087000766F200E776F2BDD48D1090127C171F902
:1008800028C172F9700E736FD60E746F010E756FFA
:10089000200E766F200E776F1ADD37D1090127C140
:1008A00071F928C172F9F00E736FCF0E746F010EDB
:1008B000756F200E766F300E776F09DD26D1090136
:1008C00027C171F928C172F9700E736FCE0E746F63
:1008D000010E756F200E766F300E776FF8DC15D134
:1008E000090127C171F928C172F9700E736FC50E25
:1008F000746F010E756F200E766F300E776FE7DC28
:1009000004D1090127C171F928C172F9F00E736F82
:10091000D50E746F010E756F100E766F400E776FE7
:10092000D6DCF3D0090127C171F928C172F9B00EE4
:10093000736FC70E746F010E756F200E766F300ED9
:10094000776FC5DCE2D0090127C171F928C172F9BE
:10095000F00E736FC60E746F010E756F300E766FEA
:10096000200E776FB4DCD1D0090127C171F928C1FD
:1009700072F9B00E736FC40E746F010E756F200E96
:10098000766F300E776FA3DCC0D0090127C171F9F3
:1009900028C172F9300E736FC90E746F010E756F36
:1009A000200E766F300E776F92DCAFD0090127C131
:1009B00071F928C172F9F00E736FC90E746F010ED0
:1009C000756F300E766F200E776F81DC9ED0090137
:1009D00027C171F928C172F9700E736FC80E746F58
:1009E000010E756F200E766F300E776F70DC8DD034
:1009F000090127C171F928C172F9B00E736FCA0ECF
:100A0000746F010E756F300E766F200E776F5FDC9E
:100A10007CD0090127C171F928C172F9F00E736FFA
:100A2000CC0E746F010E756F300E766F200E776FDF
:100A30004EDC6BD0090127C171F928C172F9300E63
:100A4000736FCC0E746F010E756F200E766F300EC3
:100A5000776F3DDC5AD0090127C171F928C172F9BD
:100A6000700E736FCB0E746F010E756F300E766F54
:100A7000200E776F2CDC49D01750010AD8B4B9D6B4
:100A80001750020AD8B4C6D61750030AD8B4D3D622
:100A90001750040AD8B4E0D61750050AD8B4EDD6DA
:100AA0001750060AD8B4FAD61750070AD8B407D791
:100AB00017500A0AD8B414D71750140AD8B421D73B
:100AC00017501E0AD8B42ED717501F0AD8B43BD7D8
:100AD0001750200AD8B448D71750280AD8B455D789
:100AE00017503C0AD8B462D717503D0AD8B46FD714
:100AF00017503E0AD8B47CD71750460A8AE01750E0
:100B0000470A98E01750480AA6E0006A016A1200F6
:100B10008E948E96B80E09016711876EFAEC00F07C
:020B20001200C1
:100B22008E988E848E9667C987FFFAEC00F01200C9
:100B320009016B6B050E6B5D0AE26B516925E16E73
:100B4200000E6A21E26E200EE66E6B2BF3D76B511C
:100B52006925E16E000E6A21E26EE66A6B076B514F
:100B620069256C6F000E6A216D6F0A0E046E000E0D
:100B7200056E67C900F068C901F0C0EC00F008C05A
:100B820000F009C001F0300E00266CC9E1FF6DC90A
:100B9200E2FF00C0E6FF0A0E046E000E056E67C992
:100BA20000F068C901F0C0EC00F000C067F901C0B4
:100BB20068F9000E011802E1000E001801E102D0EE
:060BC2006B07CDD7120005
:100BC800EAD00A0E176E2A0E0101326F000E336F3B
:100BD8003A0E0901016F000E026F24D1140E176E30
:100BE8001A0E0101326F000E336F4A0E0901016FB0
:100BF800000E026F17D11E0E176E2A0E0101326FFA
:100C0800000E336F3A0E0901016F000E026F0AD110
:100C1800280E176E2A0E0101326F000E336F3A0E3E
:100C28000901016F000E026FFDD0FCD03C0E176E5B
:100C38003A0E0101326F000E336F2A0E0901016F5F
:100C4800000E026FEFD0460E176E3A0E0101326F9A
:100C5800000E336F2A0E0901016F000E026FE2D0F9
:100C6800010E176E3A0E0101326F000E336F2A0E15
:100C78000901016F000E026FD5D0020E176E4A0EE1
:100C88000101326F000E336F1A0E0901016F000E59
:100C9800026FC8D01F0E176E3A0E0101326F000E98
:100CA800336F2A0E0901016F000E026FBBD0200EB0
:100CB800176E2A0E0101326F000E336F3A0E0901CA
:100CC800016F000E026FAED0030E176E3A0E0101CF
:100CD800326F000E336F2A0E0901016F000E026F8A
:100CE800A1D0040E176E3A0E0101326F000E336F59
:100CF8002A0E0901016F000E026F94D03D0E176E87
:100D08002A0E0101326F000E336F3A0E0901016F8E
:100D1800000E026F87D03E0E176E3A0E0101326F39
:100D2800000E336F2A0E0901016F000E026F7AD090
:100D3800060E176E2A0E0101326F000E336F3A0E3F
:100D48000901016F000E026F470E176E2A0E01018E
:100D5800326F000E336F3A0E0901016F000E026FF9
:100D680061D0480E176E3A0E0101326F000E336FD4
:100D78002A0E0901016F000E026F54D0070E176E7C
:100D88002A0E0101326F000E336F3A0E0901016F0E
:100D9800000E026F47D01750010AD8B412D7175067
:100DA800020AD8B41BD71750030AD8B424D717504F
:100DB800040AD8B42DD71750050AD8B436D7175017
:100DC800060AD8B433D71750070AD8B43CD71750F7
:100DD8000A0AD8B445D71750140AD8B44ED71750B2
:100DE8001E0AD8B457D717501F0AD8B460D717505F
:100DF800200AD8B469D71750280AD8B472D7175020
:100E08003C0AD8B47BD717503D0A85E017503E0AF4
:100E18008FE01750460A98E01750470AA2E017508B
:0A0E2800480AACE0006A016A1200FB
:100E3200120E006E000E016E870E0024E16E0F0E80
:100E42000120E26EFF0EE66E45EC00F045EC00F08C
:100E52008E848E988E868E88DBEC00F087CF67F9C1
:100E62008E988E9645EC00F045EC00F0120E006E66
:100E7200000E016E870E0024E16E0F0E0120E26E5D
:080E8200E66A67C900F01200E6
:100E8A000901245306E1010E716F000E726FEFEC37
:100E9A0000F025C900F026C901F027C902F028C9C7
:100EAA0003F06D0E046E4E0E056EC60E066E410EF2
:100EBA00076E3EEC01F0390E0024056E300E01205B
:100ECA00066E000E0220076E000E0320086E07C091
:100EDA0000F008C001F0000E08BEFF0E026E036E9D
:100EEA00FF0E00167F0E0116000E0216031600C032
:100EFA0025F901C026F902C027F903C028F9120012
:100F0A007F0E09016715016E01C067F901AC03D0B4
:0C0F1A008E8C8E9202D08E9C8E82120073
:100F260009011F6B206B216B979A97989794979658
:100F3600979C97928E9A120E006E000E016E870E87
:100F46000024E16E0F0E0120E26EE66A8E948E9604
:100F56008E9C8E828E8A3F0E876EFAEC00F0C00E53
:100F6600876EFAEC00F08E8C8E923F0E876EFAEC4E
:0C0F760000F0C00E876EFAEC00F01200D4
:100F82000101275105080DE30F6B010E0C6F28C1FB
:100F92000DF10D330D9F0D330D9F0D330D9F0D334D
:100FA2000D9F2705006E016A000E015A1C0E0024D7
:100FB200E96E000E0120EA6EEE50010A1AE1100EEF
:100FC2002825006E016A000E01220E0E046E000E2C
:100FD200056E98EC00F0000E0026020E012226514A
:100FE2000024E96E000E0120EA6EEE50010A01E1D2
:100FF2002FD02705006E016A000E015A1C0E002434
:10100200E96E000E0120EA6EEE50010A20E10E0E9A
:10101200006E000E016E28C104F0000E056E98EC01
:1010220000F0000E0024026E020E0120036E265113
:10103200010F006E016A000E012200500224E96EC7
:1010420001500320EA6EEE50010A01E101D01BD0EB
:101052000F6B010E0901006F010E0101296F28C1FA
:101062000DF10D330D9F0D330D9F0D330D9F0D337C
:101072000D9F27C10EF10E330E9F0E330E9F0E33BE
:0C1082000E9F0E330E9F006A016A1200E0
:10108E000101275105080DE30F6B010E0C6F28C1EE
:10109E000DF10D330D9F0D330D9F0D330D9F0D3340
:1010AE000D9F2705006E016A000E015A1C0E0024CA
:1010BE00E96E000E0120EA6EEE50010A18E10E0EE6
:1010CE00006E000E016E28C104F0000E056E98EC45
:1010DE0000F0000E0026020E012226510024E96EB9
:1010EE00000E0120EA6EEE50010A01E129D027051B
:1010FE00006E016A000E015A1C0E0024E96E000EED
:10110E000120EA6EEE50010A1AE1100E2825006E3B
:10111E00016A000E01220E0E046E000E056E98EC92
:10112E0000F0000E0026020E012226510024E96E68
:10113E00000E0120EA6EEE50010A01E101D01BD033
:10114E000F6B010E0901006F010E0101296F28C1FD
:10115E000DF10D330D9F0D330D9F0D330D9F0D337F
:10116E000D9F27C10EF10E330E9F0E330E9F0E33C1
:0C117E000E9F0E330E9F006A016A1200E3
:10118A0001010C51010AD8A4EBD2316B0A0E325D6F
:10119A00016E000E3359026E000E006E0250005CA2
:1011AA0002E10150315D0CE21C0EE16E000EE26EAE
:1011BA003151E126D8B0E22A010EE66E312BE6D78C
:1011CA00B4D2316B100E315D2EE20E0E006E000E9F
:1011DA00016E31C104F0000E056E98EC00F0000EAD
:1011EA000026020E0122010E0024E16E000E0120EB
:1011FA00E26E010EE66E0E0E006E000E016E31C139
:10120A0004F0000E056E98EC00F0000E0026020EA7
:10121A000122020E0024E16E000E0120E26E010E90
:10122A00E66E312BCFD7100E316F200E315D2AE2D8
:10123A000E0E006E000E016E31C104F0000E056E36
:10124A0098EC00F0000E0024E16E020E0120E26E1E
:10125A00010EE66E0E0E006E000E016E31C104F034
:10126A00000E056E98EC00F0000E0026020E012218
:10127A00010E0024E16E000E0120E26E010EE66E00
:10128A00312BD3D76DD2100E316F200E315D2EE285
:10129A000E0E006E000E016E31C104F0000E056ED6
:1012AA0098EC00F0000E0026020E0122010E002426
:1012BA00E16E000E0120E26E010EE66E0E0E006E69
:1012CA00000E016E31C104F0000E056E98EC00F0BC
:1012DA00000E0026020E0122020E0024E16E000E0C
:1012EA000120E26E010EE66E312BCFD7200E316F50
:1012FA00300E315D2AE20E0E006E000E016E31C113
:10130A0004F0000E056E98EC00F0000E0024E16E69
:10131A00020E0120E26E010EE66E0E0E006E000E47
:10132A00016E31C104F0000E056E98EC00F0000E5B
:10133A000026020E0122010E0024E16E000E012099
:10134A00E26E010EE66E312BD3D70AD2200E316F30
:10135A00300E315D2EE20E0E006E000E016E31C1AE
:10136A0004F0000E056E98EC00F0000E0026020E46
:10137A000122010E0024E16E000E0120E26E010E30
:10138A00E66E0E0E006E000E016E31C104F0000E04
:10139A00056E98EC00F0000E0026020E0122020EE5
:1013AA000024E16E000E0120E26E010EE66E312B82
:1013BA00CFD7300E316F400E315D2AE20E0E006E2D
:1013CA00000E016E31C104F0000E056E98EC00F0BB
:1013DA00000E0024E16E020E0120E26E010EE66E9E
:1013EA000E0E006E000E016E31C104F0000E056E85
:1013FA0098EC00F0000E0026020E0122010E0024D5
:10140A00E16E000E0120E26E010EE66E312BD3D79B
:10141A00A7D1300E316F400E315D2EE20E0E006EF6
:10142A00000E016E31C104F0000E056E98EC00F05A
:10143A00000E0026020E0122010E0024E16E000EAB
:10144A000120E26E010EE66E0E0E006E000E016EB7
:10145A0031C104F0000E056E98EC00F0000E002673
:10146A00020E0122020E0024E16E000E0120E26E3D
:10147A00010EE66E312BCFD7400E316F500E315D23
:10148A002AE20E0E006E000E016E31C104F0000E4B
:10149A00056E98EC00F0000E0024E16E020E0120A9
:1014AA00E26E010EE66E0E0E006E000E016E31C186
:1014BA0004F0000E056E98EC00F0000E0026020EF5
:1014CA000122010E0024E16E000E0120E26E010EDF
:1014DA00E66E312BD3D744D1400E316F500E315DB9
:1014EA002EE20E0E006E000E016E31C104F0000EE7
:1014FA00056E98EC00F0000E0026020E0122010E85
:10150A000024E16E000E0120E26E010EE66E0E0E60
:10151A00006E000E016E31C104F0000E056E98ECEB
:10152A0000F0000E0026020E0122020E0024E16ED7
:10153A00000E0120E26E010EE66E312BCFD7500E5F
:10154A00316F600E315D2AE20E0E006E000E016EE2
:10155A0031C104F0000E056E98EC00F0000E002474
:10156A00E16E020E0120E26E010EE66E0E0E006EB4
:10157A00000E016E31C104F0000E056E98EC00F009
:10158A00000E0026020E0122010E0024E16E000E5A
:10159A000120E26E010EE66E312BD3D7E1D0500E58
:1015AA00316F600E315D2EE20E0E006E000E016E7E
:1015BA0031C104F0000E056E98EC00F0000E002612
:1015CA00020E0122010E0024E16E000E0120E26EDD
:1015DA00010EE66E0E0E006E000E016E31C104F0B1
:1015EA00000E056E98EC00F0000E0026020E012295
:1015FA00020E0024E16E000E0120E26E010EE66E7C
:10160A00312BCFD7600E316F700E315D2AE20E0E8C
:10161A00006E000E016E31C104F0000E056E98ECEA
:10162A0000F0000E0024E16E020E0120E26E010EAF
:10163A00E66E0E0E006E000E016E31C104F0000E51
:10164A00056E98EC00F0000E0026020E0122010E33
:10165A000024E16E000E0120E26E010EE66E312BCF
:10166A00D3D77ED0600E316F700E315D2EE20E0E32
:10167A00006E000E016E31C104F0000E056E98EC8A
:10168A0000F0000E0026020E0122010E0024E16E77
:10169A00000E0120E26E010EE66E0E0E006E000EC6
:1016AA00016E31C104F0000E056E98EC00F0000ED8
:1016BA000026020E0122020E0024E16E000E012015
:1016CA00E26E010EE66E312BCFD7700E316F800EAF
:1016DA00315D2AE20E0E006E000E016E31C104F079
:1016EA00000E056E98EC00F0000E0024E16E020E6A
:1016FA000120E26E010EE66E0E0E006E000E016E05
:10170A0031C104F0000E056E98EC00F0000E0026C0
:10171A00020E0122010E0024E16E000E0120E26E8B
:10172A00010EE66E312BD3D71BD00D51000AD8B467
:10173A0048D50D51010AD8B4A6D50D51020AD8B41C
:10174A0005D60D51030AD8B464D60D51040AD8B48B
:10175A00C3D60D51050AD8B422D70D51060A82E024
:10176A0009010051010AD8A415EF22F0E9EF21F08E
:10177A00100E0101316F060E3225016E000E332163
:10178A00026E000E006E0250005C02E10150315DF3
:10179A000CE21C0EE16E000EE26E3151E126D8B069
:1017AA00E22A010EE66E312BE6D7E6D2316B100E35
:1017BA00315D2EE20E0E006E000E016E31C104F094
:1017CA00000E056E98EC00F0000E0026020E0122B3
:1017DA00020E0024E16E000E0120E26E010EE66E9A
:1017EA000E0E006E000E016E31C104F0000E056E81
:1017FA0098EC00F0000E0026020E0122030E0024CF
:10180A00E16E000E0120E26E010EE66E312BCFD79B
:10181A00100E316F0A0E0901015D036E000E0259A6
:10182A00046E03C001F004C002F002320132029ECB
:10183A00000E006E0250005C03E101500101315DAF
:10184A002FE201010E0E006E000E016E31C104F08E
:10185A00000E056E98EC00F0000E0026020E012222
:10186A00010E0024E16E000E0120E26E010EE66E0A
:10187A000E0E006E000E016E31C104F0000E056EF0
:10188A0098EC00F0000E0026020E0122020E00243F
:10189A00E16E000E0120E26E010EE66E312BBAD720
:1018AA0087D20101100E316F200E315D2EE20E0E2D
:1018BA00006E000E016E31C104F0000E056E98EC48
:1018CA0000F0000E0026020E0122020E0024E16E34
:1018DA00000E0120E26E010EE66E0E0E006E000E84
:1018EA00016E31C104F0000E056E98EC00F0000E96
:1018FA000026020E0122030E0024E16E000E0120D2
:10190A00E26E010EE66E312BCFD7200E316F300E0C
:10191A00315D2EE20E0E006E000E016E31C104F032
:10192A00000E056E98EC00F0000E0026020E012251
:10193A00010E0024E16E000E0120E26E010EE66E39
:10194A000E0E006E000E016E31C104F0000E056E1F
:10195A0098EC00F0000E0026020E0122020E00246E
:10196A00E16E000E0120E26E010EE66E312BCFD73A
:10197A001FD2200E316F300E315D2EE20E0E006E38
:10198A00000E016E31C104F0000E056E98EC00F0F5
:10199A00000E0026020E0122020E0024E16E000E45
:1019AA000120E26E010EE66E0E0E006E000E016E52
:1019BA0031C104F0000E056E98EC00F0000E00260E
:1019CA00020E0122030E0024E16E000E0120E26ED7
:1019DA00010EE66E312BCFD7300E316F400E315DDE
:1019EA002EE20E0E006E000E016E31C104F0000EE2
:1019FA00056E98EC00F0000E0026020E0122010E80
:101A0A000024E16E000E0120E26E010EE66E0E0E5B
:101A1A00006E000E016E31C104F0000E056E98ECE6
:101A2A0000F0000E0026020E0122020E0024E16ED2
:101A3A00000E0120E26E010EE66E312BCFD7B8D12F
:101A4A00300E316F400E315D2EE20E0E006E000E2A
:101A5A00016E31C104F0000E056E98EC00F0000E24
:101A6A000026020E0122020E0024E16E000E012061
:101A7A00E26E010EE66E0E0E006E000E016E31C1B0
:101A8A0004F0000E056E98EC00F0000E0026020E1F
:101A9A000122030E0024E16E000E0120E26E010E07
:101AAA00E66E312BCFD7400E316F500E315D2EE2EC
:101ABA000E0E006E000E016E31C104F0000E056EAE
:101ACA0098EC00F0000E0026020E0122010E0024FE
:101ADA00E16E000E0120E26E010EE66E0E0E006E41
:101AEA00000E016E31C104F0000E056E98EC00F094
:101AFA00000E0026020E0122020E0024E16E000EE4
:101B0A000120E26E010EE66E312BCFD751D1400E85
:101B1A00316F500E315D2EE20E0E006E000E016E18
:101B2A0031C104F0000E056E98EC00F0000E00269C
:101B3A00020E0122020E0024E16E000E0120E26E66
:101B4A00010EE66E0E0E006E000E016E31C104F03B
:101B5A00000E056E98EC00F0000E0026020E01221F
:101B6A00030E0024E16E000E0120E26E010EE66E05
:101B7A00312BCFD7500E316F600E315D2EE20E0E33
:101B8A00006E000E016E31C104F0000E056E98EC75
:101B9A0000F0000E0026020E0122010E0024E16E62
:101BAA00000E0120E26E010EE66E0E0E006E000EB1
:101BBA00016E31C104F0000E056E98EC00F0000EC3
:101BCA000026020E0122020E0024E16E000E012000
:101BDA00E26E010EE66E312BCFD7EAD0500E316F8E
:101BEA00600E315D2EE20E0E006E000E016E31C1E6
:101BFA0004F0000E056E98EC00F0000E0026020EAE
:101C0A000122020E0024E16E000E0120E26E010E96
:101C1A00E66E0E0E006E000E016E31C104F0000E6B
:101C2A00056E98EC00F0000E0026020E0122030E4B
:101C3A000024E16E000E0120E26E010EE66E312BE9
:101C4A00CFD7600E316F700E315D2EE20E0E006E30
:101C5A00000E016E31C104F0000E056E98EC00F022
:101C6A00000E0026020E0122010E0024E16E000E73
:101C7A000120E26E010EE66E0E0E006E000E016E7F
:101C8A0031C104F0000E056E98EC00F0000E00263B
:101C9A00020E0122020E0024E16E000E0120E26E05
:101CAA00010EE66E312BCFD783D0600E316F700EE6
:101CBA00315D2EE20E0E006E000E016E31C104F08F
:101CCA00000E056E98EC00F0000E0026020E0122AE
:101CDA00020E0024E16E000E0120E26E010EE66E95
:101CEA000E0E006E000E016E31C104F0000E056E7C
:101CFA0098EC00F0000E0026020E0122030E0024CA
:101D0A00E16E000E0120E26E010EE66E312BCFD796
:101D1A00700E316F800E315D2EE20E0E006E000ED7
:101D2A00016E31C104F0000E056E98EC00F0000E51
:101D3A000026020E0122010E0024E16E000E01208F
:101D4A00E26E010EE66E0E0E006E000E016E31C1DD
:101D5A0004F0000E056E98EC00F0000E0026020E4C
:101D6A000122020E0024E16E000E0120E26E010E35
:101D7A00E66E312BCFD71CD00D51000AD8B416D538
:101D8A000D51010AD8B48DD50D51020AD8B4F1D536
:101D9A000D51030AD8B454D60D51040AD8B4B7D693
:101DAA000D51050AD8B41AD70D51060AD8B47DD7F1
:101DBA0015EF22F00101200E316F160E3225016E49
:101DCA00000E3321026E000E006E0250005C02E12A
:101DDA000150315D0CE21C0EE16E000EE26E3151D3
:101DEA00E126D8B0E22A010EE66E312BE6D7E6D21A
:101DFA00316B100E315D2EE20E0E006E000E016E7A
:101E0A0031C104F0000E056E98EC00F0000E0026B9
:101E1A00020E0122030E0024E16E000E0120E26E82
:101E2A00010EE66E0E0E006E000E016E31C104F058
:101E3A00000E056E98EC00F0000E0026020E01223C
:101E4A00040E0024E16E000E0120E26E010EE66E21
:101E5A00312BCFD7100E316F0A0E0901015D036EC7
:101E6A00000E0259046E03C001F004C002F00232EF
:101E7A000132029E000E006E0250005C03E1015026
:101E8A000101315D2FE201010E0E006E000E016E9E
:101E9A0031C104F0000E056E98EC00F0000E002629
:101EAA00020E0122020E0024E16E000E0120E26EF3
:101EBA00010EE66E0E0E006E000E016E31C104F0C8
:101ECA00000E056E98EC00F0000E0026020E0122AC
:101EDA00030E0024E16E000E0120E26E010EE66E92
:101EEA00312BBAD787D20101100E316F200E315D26
:101EFA002EE20E0E006E000E016E31C104F0000ECD
:101F0A00056E98EC00F0000E0026020E0122040E67
:101F1A000024E16E000E0120E26E010EE66E0E0E46
:101F2A00006E000E016E31C104F0000E056E98ECD1
:101F3A0000F0000E0026020E0122030E0024E16EBC
:101F4A00000E0120E26E010EE66E312BCFD7200E75
:101F5A00316F300E315D2EE20E0E006E000E016EF4
:101F6A0031C104F0000E056E98EC00F0000E002658
:101F7A00020E0122020E0024E16E000E0120E26E22
:101F8A00010EE66E0E0E006E000E016E31C104F0F7
:101F9A00000E056E98EC00F0000E0026020E0122DB
:101FAA00030E0024E16E000E0120E26E010EE66EC1
:101FBA00312BCFD71FD2200E316F300E315D2EE27A
:101FCA000E0E006E000E016E31C104F0000E056E99
:101FDA0098EC00F0000E0026020E0122040E0024E6
:101FEA00E16E000E0120E26E010EE66E0E0E006E2C
:101FFA00000E016E31C104F0000E056E98EC00F07F
:10200A00000E0026020E0122030E0024E16E000ECD
:10201A000120E26E010EE66E312BCFD7300E316F02
:10202A00400E315D2EE20E0E006E000E016E31C1C1
:10203A0004F0000E056E98EC00F0000E0026020E69
:10204A000122030E0024E16E000E0120E26E010E51
:10205A00E66E0E0E006E000E016E31C104F0000E27
:10206A00056E98EC00F0000E0026020E0122020E08
:10207A000024E16E000E0120E26E010EE66E312BA5
:10208A00CFD7B8D1300E316F400E315D2EE20E0E31
:10209A00006E000E016E31C104F0000E056E98EC60
:1020AA0000F0000E0026020E0122040E0024E16E4A
:1020BA00000E0120E26E010EE66E0E0E006E000E9C
:1020CA00016E31C104F0000E056E98EC00F0000EAE
:1020DA000026020E0122030E0024E16E000E0120EA
:1020EA00E26E010EE66E312BCFD7400E316F500EE5
:1020FA00315D2EE20E0E006E000E016E31C104F04B
:10210A00000E056E98EC00F0000E0026020E012269
:10211A00030E0024E16E000E0120E26E010EE66E4F
:10212A000E0E006E000E016E31C104F0000E056E37
:10213A0098EC00F0000E0026020E0122020E002486
:10214A00E16E000E0120E26E010EE66E312BCFD752
:10215A0051D1400E316F500E315D2EE20E0E006EDF
:10216A00000E016E31C104F0000E056E98EC00F00D
:10217A00000E0026020E0122040E0024E16E000E5B
:10218A000120E26E010EE66E0E0E006E000E016E6A
:10219A0031C104F0000E056E98EC00F0000E002626
:1021AA00020E0122030E0024E16E000E0120E26EEF
:1021BA00010EE66E312BCFD7500E316F600E315DB6
:1021CA002EE20E0E006E000E016E31C104F0000EFA
:1021DA00056E98EC00F0000E0026020E0122020E97
:1021EA000024E16E000E0120E26E010EE66E0E0E74
:1021FA00006E000E016E31C104F0000E056E98ECFF
:10220A0000F0000E0026020E0122030E0024E16EE9
:10221A00000E0120E26E010EE66E312BCFD7EAD016
:10222A00500E316F600E315D2EE20E0E006E000E02
:10223A00016E31C104F0000E056E98EC00F0000E3C
:10224A000026020E0122040E0024E16E000E012077
:10225A00E26E010EE66E0E0E006E000E016E31C1C8
:10226A0004F0000E056E98EC00F0000E0026020E37
:10227A000122030E0024E16E000E0120E26E010E1F
:10228A00E66E312BCFD7600E316F700E315D2EE2C4
:10229A000E0E006E000E016E31C104F0000E056EC6
:1022AA0098EC00F0000E0026020E0122030E002414
:1022BA00E16E000E0120E26E010EE66E0E0E006E59
:1022CA00000E016E31C104F0000E056E98EC00F0AC
:1022DA00000E0026020E0122020E0024E16E000EFC
:1022EA000120E26E010EE66E312BCFD783D0600E4D
:1022FA00316F700E315D2EE20E0E006E000E016E11
:10230A0031C104F0000E056E98EC00F0000E0026B4
:10231A00020E0122040E0024E16E000E0120E26E7C
:10232A00010EE66E0E0E006E000E016E31C104F053
:10233A00000E056E98EC00F0000E0026020E012237
:10234A00030E0024E16E000E0120E26E010EE66E1D
:10235A00312BCFD7700E316F800E315D2EE20E0E0B
:10236A00006E000E016E31C104F0000E056E98EC8D
:10237A0000F0000E0026020E0122030E0024E16E78
:10238A00000E0120E26E010EE66E0E0E006E000EC9
:10239A00016E31C104F0000E056E98EC00F0000EDB
:1023AA000026020E0122020E0024E16E000E012018
:1023BA00E26E010EE66E312BCFD71CD00D51000A0A
:1023CA00D8B416D50D51010AD8B48DD50D51020ACB
:1023DA00D8B4F1D50D51030AD8B454D60D51040A14
:1023EA00D8B4B7D60D51050AD8B41AD70D51060A72
:1023FA00D8B47DD715EF22F00101300E316F600E8F
:10240A00315D0CE21C0EE16E000EE26E3151E126E6
:10241A00D8B0E22A010EE66E312BF1D7E6D2316B43
:10242A00100E315D2EE20E0E006E000E016E31C1ED
:10243A0004F0000E056E98EC00F0000E0026020E65
:10244A000122040E0024E16E000E0120E26E010E4C
:10245A00E66E0E0E006E000E016E31C104F0000E23
:10246A00056E98EC00F0000E0026020E0122050E01
:10247A000024E16E000E0120E26E010EE66E312BA1
:10248A00CFD7100E316F0A0E0901015D036E000EDF
:10249A000259046E03C001F004C002F00232013294
:1024AA00029E000E006E0250005C03E10150010121
:1024BA00315D2FE201010E0E006E000E016E31C178
:1024CA0004F0000E056E98EC00F0000E0026020ED5
:1024DA000122030E0024E16E000E0120E26E010EBD
:1024EA00E66E0E0E006E000E016E31C104F0000E93
:1024FA00056E98EC00F0000E0026020E0122040E72
:10250A000024E16E000E0120E26E010EE66E312B10
:10251A00BAD787D20101100E316F200E315D2EE23B
:10252A000E0E006E000E016E31C104F0000E056E33
:10253A0098EC00F0000E0026020E0122040E002480
:10254A00E16E000E0120E26E010EE66E0E0E006EC6
:10255A00000E016E31C104F0000E056E98EC00F019
:10256A00000E0026020E0122050E0024E16E000E66
:10257A000120E26E010EE66E312BCFD7200E316FAD
:10258A00300E315D2EE20E0E006E000E016E31C16C
:10259A0004F0000E056E98EC00F0000E0026020E04
:1025AA000122030E0024E16E000E0120E26E010EEC
:1025BA00E66E0E0E006E000E016E31C104F0000EC2
:1025CA00056E98EC00F0000E0026020E0122040EA1
:1025DA000024E16E000E0120E26E010EE66E312B40
:1025EA00CFD71FD2200E316F300E315D2EE20E0E84
:1025FA00006E000E016E31C104F0000E056E98ECFB
:10260A0000F0000E0026020E0122040E0024E16EE4
:10261A00000E0120E26E010EE66E0E0E006E000E36
:10262A00016E31C104F0000E056E98EC00F0000E48
:10263A000026020E0122050E0024E16E000E012082
:10264A00E26E010EE66E312BCFD7300E316F400E9F
:10265A00315D2EE20E0E006E000E016E31C104F0E5
:10266A00000E056E98EC00F0000E0026020E012204
:10267A00030E0024E16E000E0120E26E010EE66EEA
:10268A000E0E006E000E016E31C104F0000E056ED2
:10269A0098EC00F0000E0026020E0122040E00241F
:1026AA00E16E000E0120E26E010EE66E312BCFD7ED
:1026BA00B8D1300E316F400E315D2EE20E0E006E33
:1026CA00000E016E31C104F0000E056E98EC00F0A8
:1026DA00000E0026020E0122040E0024E16E000EF6
:1026EA000120E26E010EE66E0E0E006E000E016E05
:1026FA0031C104F0000E056E98EC00F0000E0026C1
:10270A00020E0122050E0024E16E000E0120E26E87
:10271A00010EE66E312BCFD7400E316F500E315D70
:10272A002EE20E0E006E000E016E31C104F0000E94
:10273A00056E98EC00F0000E0026020E0122030E30
:10274A000024E16E000E0120E26E010EE66E0E0E0E
:10275A00006E000E016E31C104F0000E056E98EC99
:10276A0000F0000E0026020E0122040E0024E16E83
:10277A00000E0120E26E010EE66E312BCFD751D149
:10278A00400E316F500E315D2EE20E0E006E000EBD
:10279A00016E31C104F0000E056E98EC00F0000ED7
:1027AA000026020E0122040E0024E16E000E012012
:1027BA00E26E010EE66E0E0E006E000E016E31C163
:1027CA0004F0000E056E98EC00F0000E0026020ED2
:1027DA000122050E0024E16E000E0120E26E010EB8
:1027EA00E66E312BCFD7500E316F600E315D2EE27F
:1027FA000E0E006E000E016E31C104F0000E056E61
:10280A0098EC00F0000E0026020E0122030E0024AE
:10281A00E16E000E0120E26E010EE66E0E0E006EF3
:10282A00000E016E31C104F0000E056E98EC00F046
:10283A00000E0026020E0122040E0024E16E000E94
:10284A000120E26E010EE66E312BCFD7EAD0500E90
:10285A00316F600E315D2EE20E0E006E000E016EBB
:10286A0031C104F0000E056E98EC00F0000E00264F
:10287A00020E0122040E0024E16E000E0120E26E17
:10288A00010EE66E0E0E006E000E016E31C104F0EE
:10289A00000E056E98EC00F0000E0026020E0122D2
:1028AA00050E0024E16E000E0120E26E010EE66EB6
:1028BA00312BCFD7600E316F700E315D2EE20E0EC6
:1028CA00006E000E016E31C104F0000E056E98EC28
:1028DA0000F0000E0026020E0122030E0024E16E13
:1028EA00000E0120E26E010EE66E0E0E006E000E64
:1028FA00016E31C104F0000E056E98EC00F0000E76
:10290A000026020E0122040E0024E16E000E0120B0
:10291A00E26E010EE66E312BCFD783D0600E316F97
:10292A00700E315D2EE20E0E006E000E016E31C188
:10293A0004F0000E056E98EC00F0000E0026020E60
:10294A000122040E0024E16E000E0120E26E010E47
:10295A00E66E0E0E006E000E016E31C104F0000E1E
:10296A00056E98EC00F0000E0026020E0122050EFC
:10297A000024E16E000E0120E26E010EE66E312B9C
:10298A00CFD7700E316F800E315D2EE20E0E006EC3
:10299A00000E016E31C104F0000E056E98EC00F0D5
:1029AA00000E0026020E0122030E0024E16E000E24
:1029BA000120E26E010EE66E0E0E006E000E016E32
:1029CA0031C104F0000E056E98EC00F0000E0026EE
:1029DA00020E0122040E0024E16E000E0120E26EB6
:1029EA00010EE66E312BCFD71CD00D51000AD8B498
:1029FA0016D50D51010AD8B48DD50D51020AD8B495
:102A0A00F1D50D51030AD8B454D60D51040AD8B4DD
:102A1A00B7D60D51050AD8B41AD70D51060AD8B43B
:102A2A007DD715EF22F00101400E316F360E3225A7
:102A3A00016E000E3321026E000E025C02E131517A
:102A4A00015C0CE31C0EE16E000EE26E3151E126D0
:102A5A00D8B0E22A010EE66E312BE8D7E6D2316B06
:102A6A00100E315D2EE20E0E006E000E016E31C1A7
:102A7A0004F0000E056E98EC00F0000E0026020E1F
:102A8A000122050E0024E16E000E0120E26E010E05
:102A9A00E66E0E0E006E000E016E31C104F0000EDD
:102AAA00056E98EC00F0000E0026020E0122060EBA
:102ABA000024E16E000E0120E26E010EE66E312B5B
:102ACA00CFD7100E316F0A0E0901015D036E000E99
:102ADA000259046E03C001F004C002F0023201324E
:102AEA00029E000E006E0250005C03E101500101DB
:102AFA00315D2FE201010E0E006E000E016E31C132
:102B0A0004F0000E056E98EC00F0000E0026020E8E
:102B1A000122040E0024E16E000E0120E26E010E75
:102B2A00E66E0E0E006E000E016E31C104F0000E4C
:102B3A00056E98EC00F0000E0026020E0122050E2A
:102B4A000024E16E000E0120E26E010EE66E312BCA
:102B5A00BAD787D20101100E316F200E315D2EE2F5
:102B6A000E0E006E000E016E31C104F0000E056EED
:102B7A0098EC00F0000E0026020E0122050E002439
:102B8A00E16E000E0120E26E010EE66E0E0E006E80
:102B9A00000E016E31C104F0000E056E98EC00F0D3
:102BAA00000E0026020E0122060E0024E16E000E1F
:102BBA000120E26E010EE66E312BCFD7200E316F67
:102BCA00300E315D2EE20E0E006E000E016E31C126
:102BDA0004F0000E056E98EC00F0000E0026020EBE
:102BEA000122040E0024E16E000E0120E26E010EA5
:102BFA00E66E0E0E006E000E016E31C104F0000E7C
:102C0A00056E98EC00F0000E0026020E0122050E59
:102C1A000024E16E000E0120E26E010EE66E312BF9
:102C2A00CFD71FD2200E316F300E315D2EE20E0E3D
:102C3A00006E000E016E31C104F0000E056E98ECB4
:102C4A0000F0000E0026020E0122050E0024E16E9D
:102C5A00000E0120E26E010EE66E0E0E006E000EF0
:102C6A00016E31C104F0000E056E98EC00F0000E02
:102C7A000026020E0122060E0024E16E000E01203B
:102C8A00E26E010EE66E312BCFD7300E316F400E59
:102C9A00315D2EE20E0E006E000E016E31C104F09F
:102CAA00000E056E98EC00F0000E0026020E0122BE
:102CBA00040E0024E16E000E0120E26E010EE66EA3
:102CCA000E0E006E000E016E31C104F0000E056E8C
:102CDA0098EC00F0000E0026020E0122050E0024D8
:102CEA00E16E000E0120E26E010EE66E312BCFD7A7
:102CFA00B8D1300E316F400E315D2EE20E0E006EED
:102D0A00000E016E31C104F0000E056E98EC00F061
:102D1A00000E0026020E0122050E0024E16E000EAE
:102D2A000120E26E010EE66E0E0E006E000E016EBE
:102D3A0031C104F0000E056E98EC00F0000E00267A
:102D4A00020E0122060E0024E16E000E0120E26E40
:102D5A00010EE66E312BCFD7400E316F500E315D2A
:102D6A002EE20E0E006E000E016E31C104F0000E4E
:102D7A00056E98EC00F0000E0026020E0122040EE9
:102D8A000024E16E000E0120E26E010EE66E0E0EC8
:102D9A00006E000E016E31C104F0000E056E98EC53
:102DAA0000F0000E0026020E0122050E0024E16E3C
:102DBA00000E0120E26E010EE66E312BCFD751D103
:102DCA00400E316F500E315D2EE20E0E006E000E77
:102DDA00016E31C104F0000E056E98EC00F0000E91
:102DEA000026020E0122050E0024E16E000E0120CB
:102DFA00E26E010EE66E0E0E006E000E016E31C11D
:102E0A0004F0000E056E98EC00F0000E0026020E8B
:102E1A000122060E0024E16E000E0120E26E010E70
:102E2A00E66E312BCFD7500E316F600E315D2EE238
:102E3A000E0E006E000E016E31C104F0000E056E1A
:102E4A0098EC00F0000E0026020E0122040E002467
:102E5A00E16E000E0120E26E010EE66E0E0E006EAD
:102E6A00000E016E31C104F0000E056E98EC00F000
:102E7A00000E0026020E0122050E0024E16E000E4D
:102E8A000120E26E010EE66E312BCFD7EAD0500E4A
:102E9A00316F600E315D2EE20E0E006E000E016E75
:102EAA0031C104F0000E056E98EC00F0000E002609
:102EBA00020E0122050E0024E16E000E0120E26ED0
:102ECA00010EE66E0E0E006E000E016E31C104F0A8
:102EDA00000E056E98EC00F0000E0026020E01228C
:102EEA00060E0024E16E000E0120E26E010EE66E6F
:102EFA00312BCFD7600E316F700E315D2EE20E0E80
:102F0A00006E000E016E31C104F0000E056E98ECE1
:102F1A0000F0000E0026020E0122040E0024E16ECB
:102F2A00000E0120E26E010EE66E0E0E006E000E1D
:102F3A00016E31C104F0000E056E98EC00F0000E2F
:102F4A000026020E0122050E0024E16E000E012069
:102F5A00E26E010EE66E312BCFD783D0600E316F51
:102F6A00700E315D2EE20E0E006E000E016E31C142
:102F7A0004F0000E056E98EC00F0000E0026020E1A
:102F8A000122050E0024E16E000E0120E26E010E00
:102F9A00E66E0E0E006E000E016E31C104F0000ED8
:102FAA00056E98EC00F0000E0026020E0122060EB5
:102FBA000024E16E000E0120E26E010EE66E312B56
:102FCA00CFD7700E316F800E315D2EE20E0E006E7D
:102FDA00000E016E31C104F0000E056E98EC00F08F
:102FEA00000E0026020E0122040E0024E16E000EDD
:102FFA000120E26E010EE66E0E0E006E000E016EEC
:10300A0031C104F0000E056E98EC00F0000E0026A7
:10301A00020E0122050E0024E16E000E0120E26E6E
:10302A00010EE66E312BCFD71CD00D51000AD8B451
:10303A0016D50D51010AD8B48DD50D51020AD8B44E
:10304A00F1D50D51030AD8B454D60D51040AD8B497
:10305A00B7D60D51050AD8B41AD70D51060AD8B4F5
:10306A007DD715EF22F00101500E316F460E322541
:10307A00016E000E3321026E000E025C02E1315134
:10308A00015C0CE31C0EE16E000EE26E3151E1268A
:10309A00D8B0E22A010EE66E312BE8D7E6D2316BC0
:1030AA00100E315D2EE20E0E006E000E016E31C161
:1030BA0004F0000E056E98EC00F0000E0026020ED9
:1030CA000122060E0024E16E000E0120E26E010EBE
:1030DA00E66E0E0E006E000E016E31C104F0000E97
:1030EA00056E98EC00F0000E0026020E0122070E73
:1030FA000024E16E000E0120E26E010EE66E312B15
:10310A00CFD7100E316F0A0E0901015D036E000E52
:10311A000259046E03C001F004C002F00232013207
:10312A00029E000E006E0250005C03E10150010194
:10313A00315D2FE201010E0E006E000E016E31C1EB
:10314A0004F0000E056E98EC00F0000E0026020E48
:10315A000122050E0024E16E000E0120E26E010E2E
:10316A00E66E0E0E006E000E016E31C104F0000E06
:10317A00056E98EC00F0000E0026020E0122060EE3
:10318A000024E16E000E0120E26E010EE66E312B84
:10319A00BAD787D20101100E316F200E315D2EE2AF
:1031AA000E0E006E000E016E31C104F0000E056EA7
:1031BA0098EC00F0000E0026020E0122060E0024F2
:1031CA00E16E000E0120E26E010EE66E0E0E006E3A
:1031DA00000E016E31C104F0000E056E98EC00F08D
:1031EA00000E0026020E0122070E0024E16E000ED8
:1031FA000120E26E010EE66E312BCFD7200E316F21
:10320A00300E315D2EE20E0E006E000E016E31C1DF
:10321A0004F0000E056E98EC00F0000E0026020E77
:10322A000122050E0024E16E000E0120E26E010E5D
:10323A00E66E0E0E006E000E016E31C104F0000E35
:10324A00056E98EC00F0000E0026020E0122060E12
:10325A000024E16E000E0120E26E010EE66E312BB3
:10326A00CFD71FD2200E316F300E315D2EE20E0EF7
:10327A00006E000E016E31C104F0000E056E98EC6E
:10328A0000F0000E0026020E0122060E0024E16E56
:10329A00000E0120E26E010EE66E0E0E006E000EAA
:1032AA00016E31C104F0000E056E98EC00F0000EBC
:1032BA000026020E0122070E0024E16E000E0120F4
:1032CA00E26E010EE66E312BCFD7300E316F400E13
:1032DA00315D2EE20E0E006E000E016E31C104F059
:1032EA00000E056E98EC00F0000E0026020E012278
:1032FA00050E0024E16E000E0120E26E010EE66E5C
:10330A000E0E006E000E016E31C104F0000E056E45
:10331A0098EC00F0000E0026020E0122060E002490
:10332A00E16E000E0120E26E010EE66E312BCFD760
:10333A00B8D1300E316F400E315D2EE20E0E006EA6
:10334A00000E016E31C104F0000E056E98EC00F01B
:10335A00000E0026020E0122060E0024E16E000E67
:10336A000120E26E010EE66E0E0E006E000E016E78
:10337A0031C104F0000E056E98EC00F0000E002634
:10338A00020E0122070E0024E16E000E0120E26EF9
:10339A00010EE66E312BCFD7400E316F500E315DE4
:1033AA002EE20E0E006E000E016E31C104F0000E08
:1033BA00056E98EC00F0000E0026020E0122050EA2
:1033CA000024E16E000E0120E26E010EE66E0E0E82
:1033DA00006E000E016E31C104F0000E056E98EC0D
:1033EA0000F0000E0026020E0122060E0024E16EF5
:1033FA00000E0120E26E010EE66E312BCFD751D1BD
:10340A00400E316F500E315D2EE20E0E006E000E30
:10341A00016E31C104F0000E056E98EC00F0000E4A
:10342A000026020E0122060E0024E16E000E012083
:10343A00E26E010EE66E0E0E006E000E016E31C1D6
:10344A0004F0000E056E98EC00F0000E0026020E45
:10345A000122070E0024E16E000E0120E26E010E29
:10346A00E66E312BCFD7500E316F600E315D2EE2F2
:10347A000E0E006E000E016E31C104F0000E056ED4
:10348A0098EC00F0000E0026020E0122050E002420
:10349A00E16E000E0120E26E010EE66E0E0E006E67
:1034AA00000E016E31C104F0000E056E98EC00F0BA
:1034BA00000E0026020E0122060E0024E16E000E06
:1034CA000120E26E010EE66E312BCFD7EAD0500E04
:1034DA00316F600E315D2EE20E0E006E000E016E2F
:1034EA0031C104F0000E056E98EC00F0000E0026C3
:1034FA00020E0122060E0024E16E000E0120E26E89
:10350A00010EE66E0E0E006E000E016E31C104F061
:10351A00000E056E98EC00F0000E0026020E012245
:10352A00070E0024E16E000E0120E26E010EE66E27
:10353A00312BCFD7600E316F700E315D2EE20E0E39
:10354A00006E000E016E31C104F0000E056E98EC9B
:10355A0000F0000E0026020E0122050E0024E16E84
:10356A00000E0120E26E010EE66E0E0E006E000ED7
:10357A00016E31C104F0000E056E98EC00F0000EE9
:10358A000026020E0122060E0024E16E000E012022
:10359A00E26E010EE66E312BCFD783D0600E316F0B
:1035AA00700E315D2EE20E0E006E000E016E31C1FC
:1035BA0004F0000E056E98EC00F0000E0026020ED4
:1035CA000122060E0024E16E000E0120E26E010EB9
:1035DA00E66E0E0E006E000E016E31C104F0000E92
:1035EA00056E98EC00F0000E0026020E0122070E6E
:1035FA000024E16E000E0120E26E010EE66E312B10
:10360A00CFD7700E316F800E315D2EE20E0E006E36
:10361A00000E016E31C104F0000E056E98EC00F048
:10362A00000E0026020E0122050E0024E16E000E95
:10363A000120E26E010EE66E0E0E006E000E016EA5
:10364A0031C104F0000E056E98EC00F0000E002661
:10365A00020E0122060E0024E16E000E0120E26E27
:10366A00010EE66E312BCFD71CD00D51000AD8B40B
:10367A0016D50D51010AD8B48DD50D51020AD8B408
:10368A00F1D50D51030AD8B454D60D51040AD8B451
:10369A00B7D60D51050AD8B41AD70D51060AD8B4AF
:1036AA007DD715EF22F00101600E316F560E3225DB
:1036BA00016E000E3321026E000E025C02E13151EE
:1036CA00015C0CE31C0EE16E000EE26E3151E12644
:1036DA00D8B0E22A010EE66E312BE8D7E6D2316B7A
:1036EA00100E315D2EE20E0E006E000E016E31C11B
:1036FA0004F0000E056E98EC00F0000E0026020E93
:10370A000122070E0024E16E000E0120E26E010E76
:10371A00E66E0E0E006E000E016E31C104F0000E50
:10372A00056E98EC00F0000E0026020E0122080E2B
:10373A000024E16E000E0120E26E010EE66E312BCE
:10374A00CFD7100E316F0A0E0901015D036E000E0C
:10375A000259046E03C001F004C002F002320132C1
:10376A00029E000E006E0250005C03E1015001014E
:10377A00315D2FE201010E0E006E000E016E31C1A5
:10378A0004F0000E056E98EC00F0000E0026020E02
:10379A000122060E0024E16E000E0120E26E010EE7
:1037AA00E66E0E0E006E000E016E31C104F0000EC0
:1037BA00056E98EC00F0000E0026020E0122070E9C
:1037CA000024E16E000E0120E26E010EE66E312B3E
:1037DA00BAD787D20101100E316F200E315D2EE269
:1037EA000E0E006E000E016E31C104F0000E056E61
:1037FA0098EC00F0000E0026020E0122070E0024AB
:10380A00E16E000E0120E26E010EE66E0E0E006EF3
:10381A00000E016E31C104F0000E056E98EC00F046
:10382A00000E0026020E0122080E0024E16E000E90
:10383A000120E26E010EE66E312BCFD7200E316FDA
:10384A00300E315D2EE20E0E006E000E016E31C199
:10385A0004F0000E056E98EC00F0000E0026020E31
:10386A000122060E0024E16E000E0120E26E010E16
:10387A00E66E0E0E006E000E016E31C104F0000EEF
:10388A00056E98EC00F0000E0026020E0122070ECB
:10389A000024E16E000E0120E26E010EE66E312B6D
:1038AA00CFD71FD2200E316F300E315D2EE20E0EB1
:1038BA00006E000E016E31C104F0000E056E98EC28
:1038CA0000F0000E0026020E0122070E0024E16E0F
:1038DA00000E0120E26E010EE66E0E0E006E000E64
:1038EA00016E31C104F0000E056E98EC00F0000E76
:1038FA000026020E0122080E0024E16E000E0120AD
:10390A00E26E010EE66E312BCFD7300E316F400ECC
:10391A00315D2EE20E0E006E000E016E31C104F012
:10392A00000E056E98EC00F0000E0026020E012231
:10393A00060E0024E16E000E0120E26E010EE66E14
:10394A000E0E006E000E016E31C104F0000E056EFF
:10395A0098EC00F0000E0026020E0122070E002449
:10396A00E16E000E0120E26E010EE66E312BCFD71A
:10397A00B8D1300E316F400E315D2EE20E0E006E60
:10398A00000E016E31C104F0000E056E98EC00F0D5
:10399A00000E0026020E0122070E0024E16E000E20
:1039AA000120E26E010EE66E0E0E006E000E016E32
:1039BA0031C104F0000E056E98EC00F0000E0026EE
:1039CA00020E0122080E0024E16E000E0120E26EB2
:1039DA00010EE66E312BCFD7400E316F500E315D9E
:1039EA002EE20E0E006E000E016E31C104F0000EC2
:1039FA00056E98EC00F0000E0026020E0122060E5B
:103A0A000024E16E000E0120E26E010EE66E0E0E3B
:103A1A00006E000E016E31C104F0000E056E98ECC6
:103A2A0000F0000E0026020E0122070E0024E16EAD
:103A3A00000E0120E26E010EE66E312BCFD751D176
:103A4A00400E316F500E315D2EE20E0E006E000EEA
:103A5A00016E31C104F0000E056E98EC00F0000E04
:103A6A000026020E0122070E0024E16E000E01203C
:103A7A00E26E010EE66E0E0E006E000E016E31C190
:103A8A0004F0000E056E98EC00F0000E0026020EFF
:103A9A000122080E0024E16E000E0120E26E010EE2
:103AAA00E66E312BCFD7500E316F600E315D2EE2AC
:103ABA000E0E006E000E016E31C104F0000E056E8E
:103ACA0098EC00F0000E0026020E0122060E0024D9
:103ADA00E16E000E0120E26E010EE66E0E0E006E21
:103AEA00000E016E31C104F0000E056E98EC00F074
:103AFA00000E0026020E0122070E0024E16E000EBF
:103B0A000120E26E010EE66E312BCFD7EAD0500EBD
:103B1A00316F600E315D2EE20E0E006E000E016EE8
:103B2A0031C104F0000E056E98EC00F0000E00267C
:103B3A00020E0122070E0024E16E000E0120E26E41
:103B4A00010EE66E0E0E006E000E016E31C104F01B
:103B5A00000E056E98EC00F0000E0026020E0122FF
:103B6A00080E0024E16E000E0120E26E010EE66EE0
:103B7A00312BCFD7600E316F700E315D2EE20E0EF3
:103B8A00006E000E016E31C104F0000E056E98EC55
:103B9A0000F0000E0026020E0122060E0024E16E3D
:103BAA00000E0120E26E010EE66E0E0E006E000E91
:103BBA00016E31C104F0000E056E98EC00F0000EA3
:103BCA000026020E0122070E0024E16E000E0120DB
:103BDA00E26E010EE66E312BCFD783D0600E316FC5
:103BEA00700E315D2EE20E0E006E000E016E31C1B6
:103BFA0004F0000E056E98EC00F0000E0026020E8E
:103C0A000122070E0024E16E000E0120E26E010E71
:103C1A00E66E0E0E006E000E016E31C104F0000E4B
:103C2A00056E98EC00F0000E0026020E0122080E26
:103C3A000024E16E000E0120E26E010EE66E312BC9
:103C4A00CFD7700E316F800E315D2EE20E0E006EF0
:103C5A00000E016E31C104F0000E056E98EC00F002
:103C6A00000E0026020E0122060E0024E16E000E4E
:103C7A000120E26E010EE66E0E0E006E000E016E5F
:103C8A0031C104F0000E056E98EC00F0000E00261B
:103C9A00020E0122070E0024E16E000E0120E26EE0
:103CAA00010EE66E312BCFD71CD00D51000AD8B4C5
:103CBA0016D50D51010AD8B48DD50D51020AD8B4C2
:103CCA00F1D50D51030AD8B454D60D51040AD8B40B
:103CDA00B7D60D51050AD8B41AD70D51060AD8B469
:103CEA007DD79ED30101700E316F660E3225016EAB
:103CFA00000E3321026E000E025C02E13151015CBA
:103D0A000CE31C0EE16E000EE26E3151E126D8B0D2
:103D1A00E22A010EE66E312BE8D7E6D2316B100E9D
:103D2A00315D2EE20E0E006E000E016E31C104F0FE
:103D3A00000E056E98EC00F0000E0026020E01221D
:103D4A00080E0024E16E000E0120E26E010EE66EFE
:103D5A000E0E006E000E016E31C104F0000E056EEB
:103D6A0098EC00F0000E0026020E0122090E002433
:103D7A00E16E000E0120E26E010EE66E312BCFD706
:103D8A00100E316F0A0E0901015D036E000E025911
:103D9A00046E03C001F004C002F002320132029E36
:103DAA00000E006E0250005C03E101500101315D1A
:103DBA002FE201010E0E006E000E016E31C104F0F9
:103DCA00000E056E98EC00F0000E0026020E01228D
:103DDA00070E0024E16E000E0120E26E010EE66E6F
:103DEA000E0E006E000E016E31C104F0000E056E5B
:103DFA0098EC00F0000E0026020E0122080E0024A4
:103E0A00E16E000E0120E26E010EE66E312BBAD78A
:103E1A0087D20101100E316F200E315D2EE20E0E97
:103E2A00006E000E016E31C104F0000E056E98ECB2
:103E3A0000F0000E0026020E0122080E0024E16E98
:103E4A00000E0120E26E010EE66E0E0E006E000EEE
:103E5A00016E31C104F0000E056E98EC00F0000E00
:103E6A000026020E0122090E0024E16E000E012036
:103E7A00E26E010EE66E312BCFD7200E316F300E77
:103E8A00315D2EE20E0E006E000E016E31C104F09D
:103E9A00000E056E98EC00F0000E0026020E0122BC
:103EAA00070E0024E16E000E0120E26E010EE66E9E
:103EBA000E0E006E000E016E31C104F0000E056E8A
:103ECA0098EC00F0000E0026020E0122080E0024D3
:103EDA00E16E000E0120E26E010EE66E312BCFD7A5
:103EEA001FD2200E316F300E315D2EE20E0E006EA3
:103EFA00000E016E31C104F0000E056E98EC00F060
:103F0A00000E0026020E0122080E0024E16E000EA9
:103F1A000120E26E010EE66E0E0E006E000E016EBC
:103F2A0031C104F0000E056E98EC00F0000E002678
:103F3A00020E0122090E0024E16E000E0120E26E3B
:103F4A00010EE66E312BCFD7300E316F400E315D48
:103F5A002EE20E0E006E000E016E31C104F0000E4C
:103F6A00056E98EC00F0000E0026020E0122070EE4
:103F7A000024E16E000E0120E26E010EE66E0E0EC6
:103F8A00006E000E016E31C104F0000E056E98EC51
:103F9A0000F0000E0026020E0122080E0024E16E37
:103FAA00000E0120E26E010EE66E312BCFD7B8D19A
:103FBA00300E316F400E315D2EE20E0E006E000E95
:103FCA00016E31C104F0000E056E98EC00F0000E8F
:103FDA000026020E0122080E0024E16E000E0120C6
:103FEA00E26E010EE66E0E0E006E000E016E31C11B
:103FFA0004F0000E056E98EC00F0000E0026020E8A
:10400A000122090E0024E16E000E0120E26E010E6B
:10401A00E66E312BCFD7400E316F500E315D2EE256
:10402A000E0E006E000E016E31C104F0000E056E18
:10403A0098EC00F0000E0026020E0122070E002462
:10404A00E16E000E0120E26E010EE66E0E0E006EAB
:10405A00000E016E31C104F0000E056E98EC00F0FE
:10406A00000E0026020E0122080E0024E16E000E48
:10407A000120E26E010EE66E312BCFD751D1400EF0
:10408A00316F500E315D2EE20E0E006E000E016E83
:10409A0031C104F0000E056E98EC00F0000E002607
:1040AA00020E0122080E0024E16E000E0120E26ECB
:1040BA00010EE66E0E0E006E000E016E31C104F0A6
:1040CA00000E056E98EC00F0000E0026020E01228A
:1040DA00090E0024E16E000E0120E26E010EE66E6A
:1040EA00312BCFD7500E316F600E315D2EE20E0E9E
:1040FA00006E000E016E31C104F0000E056E98ECE0
:10410A0000F0000E0026020E0122070E0024E16EC6
:10411A00000E0120E26E010EE66E0E0E006E000E1B
:10412A00016E31C104F0000E056E98EC00F0000E2D
:10413A000026020E0122080E0024E16E000E012064
:10414A00E26E010EE66E312BCFD7EAD0500E316FF8
:10415A00600E315D2EE20E0E006E000E016E31C150
:10416A0004F0000E056E98EC00F0000E0026020E18
:10417A000122080E0024E16E000E0120E26E010EFB
:10418A00E66E0E0E006E000E016E31C104F0000ED6
:10419A00056E98EC00F0000E0026020E0122090EB0
:1041AA000024E16E000E0120E26E010EE66E312B54
:1041BA00CFD7600E316F700E315D2EE20E0E006E9B
:1041CA00000E016E31C104F0000E056E98EC00F08D
:1041DA00000E0026020E0122070E0024E16E000ED8
:1041EA000120E26E010EE66E0E0E006E000E016EEA
:1041FA0031C104F0000E056E98EC00F0000E0026A6
:10420A00020E0122080E0024E16E000E0120E26E69
:10421A00010EE66E312BCFD783D0600E316F700E50
:10422A00315D2EE20E0E006E000E016E31C104F0F9
:10423A00000E056E98EC00F0000E0026020E012218
:10424A00080E0024E16E000E0120E26E010EE66EF9
:10425A000E0E006E000E016E31C104F0000E056EE6
:10426A0098EC00F0000E0026020E0122090E00242E
:10427A00E16E000E0120E26E010EE66E312BCFD701
:10428A00700E316F800E315D2EE20E0E006E000E42
:10429A00016E31C104F0000E056E98EC00F0000EBC
:1042AA000026020E0122070E0024E16E000E0120F4
:1042BA00E26E010EE66E0E0E006E000E016E31C148
:1042CA0004F0000E056E98EC00F0000E0026020EB7
:1042DA000122080E0024E16E000E0120E26E010E9A
:1042EA00E66E312BCFD71CD00D51000AD8B416D5A3
:1042FA000D51010AD8B48DD50D51020AD8B4F1D5A1
:10430A000D51030AD8B454D60D51040AD8B4B7D6FD
:10431A000D51050AD8B41AD70D51060AD8B47DD75B
:10432A000101800E316F760E3225016E000E3321A7
:10433A00026E000E025C02E13151015C0CE31C0EBC
:10434A00E16E000EE26E3151E126D8B0E22A010E8A
:10435A00E66E312BE8D764D0900E316F860E322587
:10436A00016E000E3321026E000E025C02E1315131
:10437A00015C0CE31C0EE16E000EE26E3151E12687
:10438A00D8B0E22A010EE66E312BE8D749D0A00E4A
:10439A00316F960E3225016E000E3321026E000E29
:1043AA00006E0250005C02E10150315D0CE21C0E0D
:1043BA00E16E000EE26E3151E126D8B0E22A010E1A
:1043CA00E66E312BE6D72CD001010E51010AD8B482
:1043DA00BDEF0BF00E51020AD8B4DFEF0EF00E510A
:1043EA00030AD8B401EF12F00E51040AD8B418EF38
:1043FA0015F00E51050AD8B438EF18F00E51060A16
:10440A00D8B458EF1BF00E51070AD8B46BD40E512A
:10441A00080A86E00E51090A9FE00E510A0AB7E01F
:06442A00006A016A1200A5
:104430008E9C8E820901466B4651070810E346C9DF
:1044400067F988EC05F0456B45513F0806E344C920
:1044500067F991EC05F0452BF7D7462BEDD78E92F7
:104460008E8C466B4651070810E346C967F988EC05
:1044700005F0456B45513F0806E344C967F991ECE7
:0C44800005F0452BF7D7462BEDD71200B6
:10448C0044C92BF945C92CF946C929F9000E090173
:10449C002A6F47C903F9000E046F01012A6B2B6BBD
:1044AC0003C904F004C905F044C900F045C901F082
:1044BC00C0EC00F000C048F901C049F948C92EF120
:1044CC0049C92FF148C900F049C901F029C904F0C4
:1044DC002AC905F098EC00F000C036F101C037F1A4
:1044EC0029C900F02AC901F001320032019E0132C3
:1044FC000032019E01320032019E48C904F049C9C4
:10450C0005F098EC00F000C034F101C035F1929444
:10451C009292929092988084808280808088120EF1
:10452C00006E000E016E830E0024E16E0F0E012052
:10453C00E26EFF0EE66E809850EC03F0808850EC33
:10454C0003F0810E0901826F61EC00F047C904F0A1
:10455C00000E056E2BC900F02CC901F0C0EC00F068
:10456C0000C07EF901C07FF9430E0901806F89EC10
:10457C0000F02EC17EF92FC17FF9410E0901806F29
:10458C0089EC00F001013451362509016A6F0101F3
:10459C003551372109016B6F01012C6B2D6B36C125
:1045AC0040F937C141F90901676B686B696BC0EC65
:1045BC0003F0900E09012D6F7E6B7F6B420E806FA6
:1045CC0089EC00F036C17EF937C17FF9400E090144
:0845DC00806F89EC00F0120071
:1045E400949694949498949A969A969C829682948B
:1045F400849C849A829A8298E0EC00F0E0EC00F0CB
:10460400E0EC00F0828A8288828645EC00F0829693
:10461400E0EC00F0828645EC00F08296E0EC00F0DD
:10462400828645EC00F08296E0EC00F08298828667
:1046340045EC00F08296E0EC00F0828645EC00F058
:104644008296829A848C828645EC00F08296E0EC15
:1046540000F0849C8288828645EC00F082968298E1
:10466400828645EC00F08296E0EC00F0828645EC10
:1046740000F082968288828645EC00F08296E0EC17
:1046840000F08298828645EC00F08296848C848ABD
:10469400828A8288828645EC00F08296E0EC00F003
:0646A40009012281120051
:1046AA00FF0E0901346FFF0E356FFF0E366FFF0ED6
:1046BA00376FCA0E306F4A0E316F000E326F000E1E
:1046CA00336F480E386F910E396F000E3A6F000E35
:1046DA003B6FFF0E3C6FFF0E3D6F000E3E6F000EEC
:1046EA003F6FAC8A900EAB6E948E949C9EAA03D0B8
:0846FA00AECF00F0FBD7120067
:104702000900F5CFE6FF0006FBE10106F9E1120020
:1047120010D0800E0901446F1AD0C00E446F17D01A
:10472200940E446F14D0D40E446F11D0800E446F97
:104732000ED009014451010AECE04451020AEDE0B5
:104742004451030AEDE04451040AEDE0EFD7450578
:10475200006E4451002600C044F900C071F9FFEC1C
:1047620000F02291486B48514625E96E000E472120
:10477200EA6EEE520CE048514625E96E000E4721E2
:10478200EA6EEECF67F949EC03F0482BECD72281B1
:02479200120013
:1047940001010C51010AD8A485D1316B0A0E325D96
:1047A400016E000E3359026E000E006E0250005C62
:1047B40002E10150315D0CE21C0EE16E000EE26E6E
:1047C4003151E126D8B0E22A010EE66E312BE6D74C
:1047D4004FD1316B200E315D2AE20E0E006E000EB9
:1047E400016E31C104F0000E056E98EC00F0000E6D
:1047F4000024E16E020E0120E26E010EE66E0E0E42
:10480400006E000E016E31C104F0000E056E98ECCE
:1048140000F0000E0026020E0122010E0024E16EBB
:10482400000E0120E26E010EE66E312BD3D73AD191
:10483400100E316F300E315D2AE20E0E006E000E46
:10484400016E31C104F0000E056E98EC00F0000E0C
:104854000024E16E020E0120E26E010EE66E0E0EE1
:10486400006E000E016E31C104F0000E056E98EC6E
:1048740000F0000E0026020E0122010E0024E16E5B
:10488400000E0120E26E010EE66E312BD3D70AD161
:10489400200E316F400E315D2AE20E0E006E000EC6
:1048A400016E31C104F0000E056E98EC00F0000EAC
:1048B4000024E16E020E0120E26E010EE66E0E0E81
:1048C400006E000E016E31C104F0000E056E98EC0E
:1048D40000F0000E0026020E0122010E0024E16EFB
:1048E400000E0120E26E010EE66E312BD3D7DAD032
:1048F400300E316F500E315D2AE20E0E006E000E46
:10490400016E31C104F0000E056E98EC00F0000E4B
:104914000024E16E020E0120E26E010EE66E0E0E20
:10492400006E000E016E31C104F0000E056E98ECAD
:1049340000F0000E0026020E0122010E0024E16E9A
:10494400000E0120E26E010EE66E312BD3D7AAD001
:10495400400E316F600E315D2AE20E0E006E000EC5
:10496400016E31C104F0000E056E98EC00F0000EEB
:104974000024E16E020E0120E26E010EE66E0E0EC0
:10498400006E000E016E31C104F0000E056E98EC4D
:1049940000F0000E0026020E0122010E0024E16E3A
:1049A400000E0120E26E010EE66E312BD3D77AD0D1
:1049B400500E316F700E315D2AE20E0E006E000E45
:1049C400016E31C104F0000E056E98EC00F0000E8B
:1049D4000024E16E020E0120E26E010EE66E0E0E60
:1049E400006E000E016E31C104F0000E056E98ECED
:1049F40000F0000E0026020E0122010E0024E16EDA
:104A0400000E0120E26E010EE66E312BD3D74AD0A0
:104A1400600E316F800E315D2AE20E0E006E000EC4
:104A2400016E31C104F0000E056E98EC00F0000E2A
:104A34000024E16E020E0120E26E010EE66E0E0EFF
:104A4400006E000E016E31C104F0000E056E98EC8C
:104A540000F0000E0026020E0122010E0024E16E79
:104A6400000E0120E26E010EE66E312BD3D71AD070
:104A74000D51000AD8B4ADD60D51010AD8B4D8D618
:104A84000D51020AD8B404D70D51030AD8B430D753
:104A94000D51040AD8B45CD70D51050A89E00D51B3
:104AA400060AB6E009010051010AD8A497EF2DF0D7
:104AB40077EF2DF0200E0101316F400E315D0CE2D5
:104AC4001C0EE16E000EE26E3151E126D8B0E22AEE
:104AD400010EE66E312BF1D76BD1316B200E315DB7
:104AE4002EE20E0E006E000E016E31C104F0000EB7
:104AF400056E98EC00F0000E0026020E0122020E54
:104B04000024E16E000E0120E26E010EE66E0E0E30
:104B1400006E000E016E31C104F0000E056E98ECBB
:104B240000F0000E0026020E0122010E0024E16EA8
:104B3400000E0120E26E010EE66E312BCFD752D16A
:104B4400100E316F300E315D2EE20E0E006E000E2F
:104B5400016E31C104F0000E056E98EC00F0000EF9
:104B64000026020E0122020E0024E16E000E012036
:104B7400E26E010EE66E0E0E006E000E016E31C185
:104B840004F0000E056E98EC00F0000E0026020EF4
:104B94000122010E0024E16E000E0120E26E010EDE
:104BA400E66E312BCFD71ED1200E316F400E315D12
:104BB4002EE20E0E006E000E016E31C104F0000EE6
:104BC400056E98EC00F0000E0026020E0122020E83
:104BD4000024E16E000E0120E26E010EE66E0E0E60
:104BE400006E000E016E31C104F0000E056E98ECEB
:104BF40000F0000E0026020E0122010E0024E16ED8
:104C0400000E0120E26E010EE66E312BCFD7EAD002
:104C1400300E316F500E315D2EE20E0E006E000E1E
:104C2400016E31C104F0000E056E98EC00F0000E28
:104C34000026020E0122020E0024E16E000E012065
:104C4400E26E010EE66E0E0E006E000E016E31C1B4
:104C540004F0000E056E98EC00F0000E0026020E23
:104C64000122010E0024E16E000E0120E26E010E0D
:104C7400E66E312BCFD7B6D0400E316F600E315D6A
:104C84002EE20E0E006E000E016E31C104F0000E15
:104C9400056E98EC00F0000E0026020E0122020EB2
:104CA4000024E16E000E0120E26E010EE66E0E0E8F
:104CB400006E000E016E31C104F0000E056E98EC1A
:104CC40000F0000E0026020E0122010E0024E16E07
:104CD400000E0120E26E010EE66E312BCFD782D09A
:104CE400500E316F700E315D2EE20E0E006E000E0E
:104CF400016E31C104F0000E056E98EC00F0000E58
:104D04000026020E0122020E0024E16E000E012094
:104D1400E26E010EE66E0E0E006E000E016E31C1E3
:104D240004F0000E056E98EC00F0000E0026020E52
:104D34000122010E0024E16E000E0120E26E010E3C
:104D4400E66E312BCFD74ED0600E316F800E315DC1
:104D54002EE20E0E006E000E016E31C104F0000E44
:104D6400056E98EC00F0000E0026020E0122020EE1
:104D74000024E16E000E0120E26E010EE66E0E0EBE
:104D8400006E000E016E31C104F0000E056E98EC49
:104D940000F0000E0026020E0122010E0024E16E36
:104DA400000E0120E26E010EE66E312BCFD71AD031
:104DB4000D51000AD8B491D60D51010AD8B4C0D609
:104DC4000D51020AD8B4F0D60D51030AD8B420D735
:104DD4000D51040AD8B450D70D51050A81E00D5184
:104DE400060AB2E097EF2DF0200E316F400E315DD0
:104DF4000CE21C0EE16E000EE26E3151E126D8B0D9
:104E0400E22A010EE66E312BF1D76BD1316B200E05
:104E1400315D2EE20E0E006E000E016E31C104F003
:104E2400000E056E98EC00F0000E0026020E012222
:104E3400030E0024E16E000E0120E26E010EE66E08
:104E44000E0E006E000E016E31C104F0000E056EF0
:104E540098EC00F0000E0026020E0122020E00243F
:104E6400E16E000E0120E26E010EE66E312BCFD70B
:104E740052D1100E316F300E315D2EE20E0E006EE7
:104E8400000E016E31C104F0000E056E98EC00F0C6
:104E9400000E0026020E0122030E0024E16E000E15
:104EA4000120E26E010EE66E0E0E006E000E016E23
:104EB40031C104F0000E056E98EC00F0000E0026DF
:104EC400020E0122020E0024E16E000E0120E26EA9
:104ED400010EE66E312BCFD71ED1200E316F400E5E
:104EE400315D2EE20E0E006E000E016E31C104F033
:104EF400000E056E98EC00F0000E0026020E012252
:104F0400030E0024E16E000E0120E26E010EE66E37
:104F14000E0E006E000E016E31C104F0000E056E1F
:104F240098EC00F0000E0026020E0122020E00246E
:104F3400E16E000E0120E26E010EE66E312BCFD73A
:104F4400EAD0300E316F500E315D2EE20E0E006E3F
:104F5400000E016E31C104F0000E056E98EC00F0F5
:104F6400000E0026020E0122030E0024E16E000E44
:104F74000120E26E010EE66E0E0E006E000E016E52
:104F840031C104F0000E056E98EC00F0000E00260E
:104F9400020E0122020E0024E16E000E0120E26ED8
:104FA400010EE66E312BCFD7B6D0400E316F600EB6
:104FB400315D2EE20E0E006E000E016E31C104F062
:104FC400000E056E98EC00F0000E0026020E012281
:104FD400030E0024E16E000E0120E26E010EE66E67
:104FE4000E0E006E000E016E31C104F0000E056E4F
:104FF40098EC00F0000E0026020E0122020E00249E
:10500400E16E000E0120E26E010EE66E312BCFD769
:1050140082D0500E316F700E315D2EE20E0E006E96
:10502400000E016E31C104F0000E056E98EC00F024
:10503400000E0026020E0122030E0024E16E000E73
:105044000120E26E010EE66E0E0E006E000E016E81
:1050540031C104F0000E056E98EC00F0000E00263D
:10506400020E0122020E0024E16E000E0120E26E07
:10507400010EE66E312BCFD74ED0600E316F800E0D
:10508400315D2EE20E0E006E000E016E31C104F091
:10509400000E056E98EC00F0000E0026020E0122B0
:1050A400030E0024E16E000E0120E26E010EE66E96
:1050B4000E0E006E000E016E31C104F0000E056E7E
:1050C40098EC00F0000E0026020E0122020E0024CD
:1050D400E16E000E0120E26E010EE66E312BCFD799
:1050E4001AD00D51000AD8B491D60D51010AD8B482
:1050F400C0D60D51020AD8B4F0D60D51030AD8B463
:1051040020D70D51040AD8B450D70D51050A81E0B7
:105114000D51060AB2E097EF2DF0300E316F500EAC
:10512400315D0CE21C0EE16E000EE26E3151E1269F
:10513400D8B0E22A010EE66E312BF1D703D1316BE0
:10514400200E315D2EE20E0E006E000E016E31C196
:1051540004F0000E056E98EC00F0000E0026020E1E
:105164000122030E0024E16E000E0120E26E010E06
:10517400E66E0E0E006E000E016E31C104F0000EDC
:10518400056E98EC00F0000E0026020E0122040EBB
:105194000024E16E000E0120E26E010EE66E312B5A
:1051A400CFD7E2D0100E316F300E315D2EE20E0EED
:1051B400006E000E016E31C104F0000E056E98EC15
:1051C40000F0000E0026020E0122030E0024E16E00
:1051D400000E0120E26E010EE66E0E0E006E000E51
:1051E400016E31C104F0000E056E98EC00F0000E63
:1051F4000026020E0122040E0024E16E000E01209E
:10520400E26E010EE66E312BCFD7AED0200E316F99
:10521400400E315D2EE20E0E006E000E016E31C1A5
:1052240004F0000E056E98EC00F0000E0026020E4D
:105234000122030E0024E16E000E0120E26E010E35
:10524400E66E0E0E006E000E016E31C104F0000E0B
:10525400056E98EC00F0000E0026020E0122040EEA
:105264000024E16E000E0120E26E010EE66E312B89
:10527400CFD77AD0400E316F600E315D2EE20E0E24
:10528400006E000E016E31C104F0000E056E98EC44
:1052940000F0000E0026020E0122030E0024E16E2F
:1052A400000E0120E26E010EE66E0E0E006E000E80
:1052B400016E31C104F0000E056E98EC00F0000E92
:1052C4000026020E0122040E0024E16E000E0120CD
:1052D400E26E010EE66E312BCFD746D0600E316FF1
:1052E400800E315D2EE20E0E006E000E016E31C195
:1052F40004F0000E056E98EC00F0000E0026020E7D
:105304000122030E0024E16E000E0120E26E010E64
:10531400E66E0E0E006E000E016E31C104F0000E3A
:10532400056E98EC00F0000E0026020E0122040E19
:105334000024E16E000E0120E26E010EE66E312BB8
:10534400CFD712D00D51000AD8B4F9D60D51010AA5
:10535400D8B428D70D51020AD8B458D70D51040A2D
:1053640089E00D51060ABAE0E0D3400E316F600EB9
:10537400315D0CE21C0EE16E000EE26E3151E1264D
:10538400D8B0E22A010EE66E312BF1D7CFD0316BC3
:10539400200E315D2EE20E0E006E000E016E31C144
:1053A40004F0000E056E98EC00F0000E0026020ECC
:1053B4000122050E0024E16E000E0120E26E010EB2
:1053C400E66E0E0E006E000E016E31C104F0000E8A
:1053D400056E98EC00F0000E0026020E0122040E69
:1053E4000024E16E000E0120E26E010EE66E312B08
:1053F400CFD7AAD0200E316F400E315D2EE20E0EB3
:10540400006E000E016E31C104F0000E056E98ECC2
:1054140000F0000E0026020E0122050E0024E16EAB
:10542400000E0120E26E010EE66E0E0E006E000EFE
:10543400016E31C104F0000E056E98EC00F0000E10
:105444000026020E0122040E0024E16E000E01204B
:10545400E26E010EE66E312BCFD776D0400E316F5F
:10546400600E315D2EE20E0E006E000E016E31C133
:1054740004F0000E056E98EC00F0000E0026020EFB
:105484000122050E0024E16E000E0120E26E010EE1
:10549400E66E0E0E006E000E016E31C104F0000EB9
:1054A400056E98EC00F0000E0026020E0122040E98
:1054B4000024E16E000E0120E26E010EE66E312B37
:1054C400CFD742D0600E316F800E315D2EE20E0ECA
:1054D400006E000E016E31C104F0000E056E98ECF2
:1054E40000F0000E0026020E0122050E0024E16EDB
:1054F400000E0120E26E010EE66E0E0E006E000E2E
:10550400016E31C104F0000E056E98EC00F0000E3F
:105514000026020E0122040E0024E16E000E01207A
:10552400E26E010EE66E312BCFD70ED00D51000A7C
:10553400D8B42DD70D51020AD8B45CD70D51040A42
:105544008DE00D51060ABEE0F0D2600E316F800E80
:10555400315D0CE21C0EE16E000EE26E3151E1266B
:10556400D8B0E22A010EE66E312BF1D7CFD0316BE1
:10557400200E315D2EE20E0E006E000E016E31C162
:1055840004F0000E056E98EC00F0000E0026020EEA
:105594000122070E0024E16E000E0120E26E010ECE
:1055A400E66E0E0E006E000E016E31C104F0000EA8
:1055B400056E98EC00F0000E0026020E0122060E85
:1055C4000024E16E000E0120E26E010EE66E312B26
:1055D400CFD7AAD0200E316F400E315D2EE20E0ED1
:1055E400006E000E016E31C104F0000E056E98ECE1
:1055F40000F0000E0026020E0122070E0024E16EC8
:10560400000E0120E26E010EE66E0E0E006E000E1C
:10561400016E31C104F0000E056E98EC00F0000E2E
:105624000026020E0122060E0024E16E000E012067
:10563400E26E010EE66E312BCFD776D0400E316F7D
:10564400600E315D2EE20E0E006E000E016E31C151
:1056540004F0000E056E98EC00F0000E0026020E19
:105664000122070E0024E16E000E0120E26E010EFD
:10567400E66E0E0E006E000E016E31C104F0000ED7
:10568400056E98EC00F0000E0026020E0122060EB4
:105694000024E16E000E0120E26E010EE66E312B55
:1056A400CFD742D0600E316F800E315D2EE20E0EE8
:1056B400006E000E016E31C104F0000E056E98EC10
:1056C40000F0000E0026020E0122070E0024E16EF7
:1056D400000E0120E26E010EE66E0E0E006E000E4C
:1056E400016E31C104F0000E056E98EC00F0000E5E
:1056F4000026020E0122060E0024E16E000E012097
:10570400E26E010EE66E312BCFD70ED00D51000A9A
:10571400D8B42DD70D51020AD8B45CD70D51040A60
:105724008DE00D51060ABEE000D2800E316FA00E4E
:10573400315D0CE21C0EE16E000EE26E3151E12689
:10574400D8B0E22A010EE66E312BF1D7CFD0316BFF
:10575400200E315D2EE20E0E006E000E016E31C180
:1057640004F0000E056E98EC00F0000E0026020E08
:105774000122070E0024E16E000E0120E26E010EEC
:10578400E66E0E0E006E000E016E31C104F0000EC6
:10579400056E98EC00F0000E0026020E0122080EA1
:1057A4000024E16E000E0120E26E010EE66E312B44
:1057B400CFD7AAD0200E316F400E315D2EE20E0EEF
:1057C400006E000E016E31C104F0000E056E98ECFF
:1057D40000F0000E0026020E0122070E0024E16EE6
:1057E400000E0120E26E010EE66E0E0E006E000E3B
:1057F400016E31C104F0000E056E98EC00F0000E4D
:105804000026020E0122080E0024E16E000E012083
:10581400E26E010EE66E312BCFD776D0400E316F9B
:10582400600E315D2EE20E0E006E000E016E31C16F
:1058340004F0000E056E98EC00F0000E0026020E37
:105844000122070E0024E16E000E0120E26E010E1B
:10585400E66E0E0E006E000E016E31C104F0000EF5
:10586400056E98EC00F0000E0026020E0122080ED0
:105874000024E16E000E0120E26E010EE66E312B73
:10588400CFD742D0600E316F800E315D2EE20E0E06
:10589400006E000E016E31C104F0000E056E98EC2E
:1058A40000F0000E0026020E0122070E0024E16E15
:1058B400000E0120E26E010EE66E0E0E006E000E6A
:1058C400016E31C104F0000E056E98EC00F0000E7C
:1058D4000026020E0122080E0024E16E000E0120B3
:1058E400E26E010EE66E312BCFD70ED00D51000AB9
:1058F400D8B42DD70D51020AD8B45CD70D51040A7F
:105904008DE00D51060ABEE010D1A00E316FC00E1D
:10591400315D0CE21C0EE16E000EE26E3151E126A7
:10592400D8B0E22A010EE66E312BF1D7CFD0316B1D
:10593400200E315D2EE20E0E006E000E016E31C19E
:1059440004F0000E056E98EC00F0000E0026020E26
:105954000122090E0024E16E000E0120E26E010E08
:10596400E66E0E0E006E000E016E31C104F0000EE4
:10597400056E98EC00F0000E0026020E0122080EBF
:105984000024E16E000E0120E26E010EE66E312B62
:10599400CFD7AAD0200E316F400E315D2EE20E0E0D
:1059A400006E000E016E31C104F0000E056E98EC1D
:1059B40000F0000E0026020E0122090E0024E16E02
:1059C400000E0120E26E010EE66E0E0E006E000E59
:1059D400016E31C104F0000E056E98EC00F0000E6B
:1059E4000026020E0122080E0024E16E000E0120A2
:1059F400E26E010EE66E312BCFD776D0400E316FBA
:105A0400600E315D2EE20E0E006E000E016E31C18D
:105A140004F0000E056E98EC00F0000E0026020E55
:105A24000122080E0024E16E000E0120E26E010E38
:105A3400E66E0E0E006E000E016E31C104F0000E13
:105A4400056E98EC00F0000E0026020E0122090EED
:105A54000024E16E000E0120E26E010EE66E312B91
:105A6400CFD742D0600E316F800E315D2EE20E0E24
:105A7400006E000E016E31C104F0000E056E98EC4C
:105A840000F0000E0026020E0122090E0024E16E31
